:100000000C9434000C9453000C9451000C94510047
:100010000C9451000C9451000C9451000C9451001C
:100020000C9451000C9451000C9451000C9451000C
:100030000C9451000C9451000C9451000C945100FC
:100040000C9451000C9451000C9454000C945100E9
:100050000C9451000C9451000C9451000C945100DC
:100060000C9451000C94510011241FBECFEFD8E026
:10007000DEBFCDBF11E0A0E0B1E0E0E9F2E002C0F8
:1000800005900D92AC31B107D9F721E0ACE1B1E0B8
:1000900001C01D92A232B207E1F70E94F1000C9458
:1000A00046010C94000018958F938091C6008F91A3
:1000B000189580917A00806480937A0080917A000C
:1000C00086FDFCCF60E070E0CB01089580E880936E
:1000D0007C0080917C0080937C0083E080937A0098
:1000E00080917A00806880937A0080917A008064A1
:1000F00080937A0080917A0086FDFCCF8091780011
:1001000090917900089508950895DF92EF92FF92FB
:100110000F931F93CF93DF9300D0CDB7DEB72DB7EA
:100120003EB73A83298390E07C0131E0E31AF1087D
:100130002DB73EB7281B390B0FB6F8943EBF0FBE44
:100140002DBF8DB79EB70196D82E8C0180911C01D2
:1001500090911D010E940801F8010F5F1F4F8083DD
:10016000902F9D198A3019F09E151F047CF390E0A2
:1001700080E029813A810FB6F8943EBF0FBE2DBFB3
:100180000F900F90DF91CF911F910F91FF90EF9003
:10019000DF9008951092C50087E68093C400E0ECDC
:1001A000F0E080818D7F808386E08093C20088E1CB
:1001B0008093C1000895CF93C82F8A3019F48DE041
:1001C0000E94DB008091C00085FFFCCFC093C60079
:1001D000CF9108958091C00087FFFCCF8091C60029
:1001E0000895F8940E94CA00ECE1F1E08EE091E0FD
:1001F0009383828380E091E09183808381E0809388
:10020000680083E080936900789490E080E008952E
:10021000CF93DF93EC018B8180FF33C086FF0CC04E
:100220008F7B8B838E819F8101969F838E838A81B2
:1002300090E0DF91CF91089582FF15C0E881F981A8
:100240009081292F092E000C330B80629923C1F075
:100250003196F983E8838E819F8101969F838E83F7
:10026000C9019927E6CFEA85FB85CE0109959C0156
:1002700097FFF1CF8B812F3F3F4F31F090E2892BD9
:100280008B838FEF9FEFD5CF90E1F9CFF894FFCF1D
:1002900000000001000000000000EA000000000073
:0C02A000000200000000DB000000000075
:00000001FF
