:100000000C9434000C943E000C943E000C943E0082
:100010000C943E000C943E000C943E000C943E0068
:100020000C943E000C943E000C943E000C943E0058
:100030000C943E000C943E000C943E000C943E0048
:100040000C943E000C943E000C943E000C943E0038
:100050000C943E000C943E000C943E000C943E0028
:100060000C943E000C943E0011241FBECFEFD8E04C
:10007000DEBFCDBF0E9451000C9454000C940000D0
:100080001092C5008CE08093C400E0ECF0E0808129
:100090008260808386E08093C20088E18093C10003
:0C00A000089590E080E00895F894FFCFF0
:00000001FF
