:100000000C9434000C9451000C9451000C94510049
:100010000C9451000C9451000C9451000C9451001C
:100020000C9451000C9451000C9451000C9451000C
:100030000C9451000C9451000C9451000C945100FC
:100040000C9451000C9451000C9451000C945100EC
:100050000C9451000C9451000C9451000C945100DC
:100060000C9451000C94510011241FBECFEFD8E026
:10007000DEBFCDBF11E0A0E0B1E0EAE6F1E002C0F2
:1000800005900D92AC31B107D9F721E0ACE1B1E0B8
:1000900001C01D92A232B207E1F70E94A4000C94A5
:1000A000B3000C94000080917A00806480937A0001
:1000B00080917A0086FDFCCF60E070E0CB0108956E
:1000C00080E880937C0080917C0080937C0083E0BA
:1000D00080937A0080917A00806880937A00809182
:1000E0007A00806480937A0080917A0086FDFCCF4C
:1000F000809178009091790008951092C50087E66C
:100100008093C400E0ECF0E080818D7F808386E006
:100110008093C20088E18093C1000895CF93C82FD7
:100120008A3019F48DE00E948E008091C00085FF16
:10013000FCCFC093C600CF9108958091C00087FF87
:10014000FCCF8091C60008950E947D00ECE1F1E0B3
:100150008EE091E09383828380E091E091838083BD
:0A01600090E080E00895F894FFCFCE
:10016A00000000010000000000009D0000000000E7
:0C017A000002000000008E0000000000E9
:00000001FF
