:100000000C9434000C9453000C9451000C94510047
:100010000C9451000C9451000C9451000C9451001C
:100020000C9451000C9451000C9451000C9451000C
:100030000C9451000C9451000C9451000C945100FC
:100040000C9451000C9451000C9454000C945100E9
:100050000C9451000C9451000C9451000C945100DC
:100060000C9451000C94510011241FBECFEFD8E026
:10007000DEBFCDBF11E0A0E0B1E0E6EAF8E002C0EB
:1000800005900D92A634B107D9F721E0A6E4B1E0BE
:1000900001C01D92AC34B207E1F70E94F1000C944C
:1000A00051040C94000018958F938091C6008F9195
:1000B000189580917A00806480937A0080917A000C
:1000C00086FDFCCF60E070E0CB01089580E880936E
:1000D0007C0080917C0080937C0083E080937A0098
:1000E00080917A00806880937A0080917A008064A1
:1000F00080937A0080917A0086FDFCCF8091780011
:1001000090917900089508950895CF92DF92EF922B
:10011000FF920F931F93CF93DF9300D0CDB7DEB73D
:10012000D82E2DB73EB73A8329838DB79EB78D1948
:1001300091090FB6F8949EBF0FBE8DBFEDB7FEB705
:1001400031967F01CE2E8F0180914601909147011B
:100150000E942501F80181938F01319780818A30B7
:1001600021F0802F8C198D1578F38E2DEE0C990BC4
:1001700029813A810FB6F8943EBF0FBE2DBF0F9074
:100180000F90DF91CF911F910F91FF90EF90DF9033
:10019000CF9008951092C50087E68093C400E0ECEC
:1001A000F0E080818D7F808386E08093C20088E1CB
:1001B0008093C1000895CF93C82F8A3019F48DE041
:1001C0000E94DB008091C00085FFFCCFC093C60079
:1001D000CF9108958091C00087FFFCCF8091C60029
:1001E0000895F8940E94CA008EE091E0909349012E
:1001F0008093480180E091E090934701809346010D
:1002000081E08093680083E08093690078948CE1BA
:1002100091E00E9477018FE39CE90197F1F700C01C
:100220000000C8E3D1E089E291E00E94770184E018
:100230000E9485009F938F93DF93CF930E94630169
:100240000F900F900F900F90EECFCF93DF93EC01B4
:100250008B8180FF33C086FF0CC08F7B8B838E81A8
:100260009F8101969F838E838A8190E0DF91CF9159
:10027000089582FF15C0E881F9819081292F092E08
:10028000000C330B80629923C1F03196F983E88327
:100290008E819F8101969F838E83C9019927E6CF26
:1002A000EA85FB85CE0109959C0197FFF1CF8B81F3
:1002B0002F3F3F4F31F090E2892B8B838FEF9FEFE1
:1002C000D5CF90E1F9CFB0E0A0E0E9E6F1E00C9401
:1002D0002A04FE01359661917191AF018091480128
:1002E000909149010E94A301E2E00C9446040F930F
:1002F0001F93CF93DF93E0914801F091490123814F
:1003000000E010E021FD0EC00FEF1FEFC801DF91EC
:10031000CF911F910F9108950995892B11F00FEF3F
:100320001FEFCE01EC018991609148017091490164
:10033000DB011896ED91FC918111EECF8AE00995D1
:10034000892B21F3E1CFAFE0B0E0E9EAF1E00C94D2
:100350001A047C013B018A01DC0117961C921E9253
:10036000169713968C9181FFBEC19AE0292EFE014B
:1003700031964F01D70113969C91F30193FD85911E
:1003800093FF81913F01882309F444C1853239F4F8
:1003900093FD859193FF81913F01853229F4B70147
:1003A00090E00E948C03E6CFB12C412C512CBFE190
:1003B000B51538F08B3209F188F4803201F18332BF
:1003C00021F157FC3AC020ED280F2A3040F556FEA7
:1003D0001FC0B29C200D1124B22E06C08D3291F0A8
:1003E000803379F7689450F8F30193FD859193FF7A
:1003F00081913F018111DBCF20C0689451F868944E
:1004000052F8F2CF689453F8EFCF689454F8ECCFD9
:10041000429C200D1124422E689455F8E5CF8E326F
:1004200029F456FCF7C0689456F8DECF8C3619F4E0
:10043000689457F8D9CF8836B9F2982F9F7D955494
:100440009330C0F08336A1F18337C1F1833509F0D1
:100450005BC0D801CD90DD908D016B2D70E056FC16
:1004600002C06FEF7FEFC6010E9476035C016894C3
:1004700057F80AC00C5F1F4FEFE3E983AA24A39447
:10048000B12C6401E89457F853FC04C04A141B04CF
:1004900009F018F5342CA114B10431F5332009F416
:1004A00069CFB70180E290E00E948C033A94F6CFC6
:1004B000D8018C9189830E5F1F4FE0CFF801C19066
:1004C000D1908F016B2D70E056FC02C06FEF7FEF73
:1004D000C6010E9481035C01D5CFB70180E290E0A4
:1004E0000E948C034A94D2CFF60157FC859157FEA7
:1004F00081916F01B70190E00E948C0331103A9412
:10050000B1E0AB1AB108C7CF843619F0893609F0CB
:1005100071C0F80157FE67C061917191819191910D
:100520008F01E52DEF76DE2E97FF09C0909580951F
:10053000709561957F4F8F4F9F4F6894D7F82AE051
:1005400030E0A4010E94BC03C82EC818AC2C5D2C5E
:10055000D6FE0CC0E89450F8CB1440F4D4FE05C08D
:10056000D2FC03C05D2D5E7E552EAB2C54FE93C095
:10057000FE01EC0DF11D8081803309F085C0652DF1
:10058000697E562E752D7870372E53FC93C050FE21
:100590008DC0BC2CA41410F4B40CBA1854FE90C036
:1005A000B70180E390E00E948C0352FE07C088E709
:1005B00051FC88E590E0B7010E948C03CB1408F44D
:1005C0008BC0CA94D12C8FEFC81AD80AC80CD91C7A
:1005D000D6018E916D01B70190E00E948C038C14BE
:1005E0009D04B1F75BCF61917191072E000C880BD0
:1005F000990B96CFD52CE894D4F82AE0853729F1C9
:10060000F52DF97FDF2E8037A1F058F48835A1F061
:100610008F36D1F0F701868197812F96E2E10C9415
:1006200036048837B9F7D4FE02C06894D2F820E1C6
:100630000CC06894D4F8F7CF54FE03C02F2F266067
:10064000D22E20E132E002C028E030E0F801D7FEEF
:1006500015C041915191619171914C875D876E8771
:100660007F878F01A4016C857D858E859F850E9483
:10067000BC03C82EC818E894D7F868CF819191912F
:10068000AC0170E060E0E9CF52FC02C0A3947ACFE5
:10069000A394A39477CF852D867809F473CFF6CFF2
:1006A000B70180E290E00E948C03A394A414C0F3ED
:1006B000312C74CF342C3A18A41408F46FCFF8CF2F
:1006C000852D867809F47ACF8BE251FE80E257FCC3
:1006D0008DE2B70190E070CFB70180E390E00E9417
:1006E0008C03BA946BCF8FEF9FEF97CFFC010590EF
:1006F000615070400110D8F7809590958E0F9F1F24
:100700000895FC016150704001900110D8F7809568
:1007100090958E0F9F1F08950F931F93CF93DF9394
:10072000182F092FEB018B8181FD09C01FEF0FEFFF
:10073000812F902FDF91CF911F910F91089582FF0C
:1007400014C02E813F818C819D81281739073CF48C
:10075000E881F981CF0101969983888310838E8186
:100760009F8101969F838E83E3CFE885F985812F52
:100770000995892BA1F3DACFFA01AA27283051F184
:10078000203181F1E8946F936E7F6E5F7F4F8F4FC2
:100790009F4FAF4FB1E03ED0B4E03CD0670F781F21
:1007A000891F9A1FA11D680F791F8A1F911DA11D06
:1007B0006A0F711D811D911DA11D20D009F468943F
:1007C0003F912AE0269F11243019305D3193DEF6E7
:1007D000CF010895462F4770405D4193B3E00FD09D
:1007E000C9F7F6CF462F4F70405D4A3318F0495D88
:1007F00031FD4052419302D0A9F7EACFB4E0A6956B
:100800009795879577956795BA95C9F7009761058C
:10081000710508959B01AC010A2E069457954795E2
:1008200037952795BA95C9F7620F731F841F951FD7
:10083000A01D08952F923F924F925F926F927F92E8
:100840008F929F92AF92BF92CF92DF92EF92FF92E0
:100850000F931F93CF93DF93CDB7DEB7CA1BDB0B8C
:100860000FB6F894DEBF0FBECDBF09942A88398831
:1008700048885F846E847D848C849B84AA84B98438
:10088000C884DF80EE80FD800C811B81AA81B98144
:10089000CE0FD11D0FB6F894DEBF0FBECDBFED0158
:0608A0000895F894FFCF5B
:1008A60000000001000000000000EA000000000057
:1008B600000200000000DB000000000048656C6CD0
:1008C6006F20576F726C642100456E7465722053F9
:1008D6007472696E673A2000596F752077726F746B
:0608E600652025730A00E5
:00000001FF
